S0110000536D617274486F6D652E7372656383
S11300000C942A000C943F000C943F000C943F0085
S11300100C943F000C943F000C943F000C943F0060
S11300200C943F000C943F000C943F000C943F0050
S11300300C943F000C943F000C943F000C943F0040
S11300400C943F000C943F000C943F000C943F0030
S11300500C943F0011241FBECFE5D8E0DEBFCDBF16
S113006010E0A0E6B0E0EEE9FAE002C005900D92DF
S1130070AE36B107D9F70E9497020C944D050C9443
S11300800000982F9770869586958695813021F18A
S113009030F08230F1F1833009F458C008956130B2
S11300A069F44BB321E030E0B90102C0660F771F59
S11300B09A95E2F7CB01842B8BBB08954BB321E0D7
S11300C030E0B90102C0660F771F9A95E2F7CB01C1
S11300D0809584238BBB0895613069F448B321E093
S11300E030E0B90102C0660F771F9A95E2F7CB01A1
S11300F0842B88BB089548B321E030E0B90102C0E5
S1130100660F771F9A95E2F7CB018095842388BB0D
S11301100895613069F445B321E030E0B90102C0CB
S1130120660F771F9A95E2F7CB01842B85BB089560
S113013045B321E030E0B90102C0660F771F9A95FC
S1130140E2F7CB018095842385BB0895613069F47F
S113015042B321E030E0B90102C0660F771F9A95DF
S1130160E2F7CB01842B82BB089542B321E030E057
S1130170B90102C0660F771F9A95E2F7CB0180950B
S1130180842382BB0895813041F028F0823039F015
S1130190833039F008956BBB089568BB089565BB3F
S11301A0089562BB0895CF93C82F60E089E00E9450
S11301B041006BB36F708C2F807F682B80E00E94AE
S11301C0C30061E08BE00E9441008FE39FE101974F
S11301D0F1F700C0000060E08BE00E9441008FE175
S11301E09EE40197F1F700C000006BB36F7020E14B
S11301F0C29FC0011124682B80E00E94C30061E00B
S11302008BE00E9441008FE39FE10197F1F700C06A
S1130210000060E08BE00E9441008FE39FE10197C2
S1130220F1F700C00000CF9108958AB3806F8ABBB4
S1130230B99ABA9ABB9A2FEF89EF90E02150804087
S11302409040E1F700C0000060E08AE00E944100B5
S113025083E30E94D30082E30E94D30088E20E94D9
S1130260D30086E00E94D3008FE00E94D30081E097
S11302700E94D3000895CF93C82F61E089E00E94C3
S113028041006BB36F708C2F807F682B80E00E94DD
S1130290C30061E08BE00E9441008FE39FE101977E
S11302A0F1F700C0000060E08BE00E9441008FE1A4
S11302B09EE40197F1F700C000006BB36F7020E17A
S11302C0C29FC0011124682B80E00E94C30061E03A
S11302D08BE00E9441008FE39FE10197F1F700C09A
S11302E0000060E08BE00E9441008FE39FE10197F2
S11302F0F1F700C00000CF9108950F931F93CF939F
S11303008C01C0E00BC00E943B01CF5FC03121F4DF
S113031080EC0E94D30002C0C03231F0F801EC0F2F
S1130320F11D80818111EFCFCF911F910F9108951D
S11303302F923F924F925F926F927F928F929F92F1
S1130340AF92BF92CF92DF92EF92FF920F931F93DF
S1130350CF93DF934C01142F052F362E272E242FF5
S1130360352F462F572FC12CD12C76010F2EFAE0B2
S11303704F2E512C612C712CF02D8FEFC81AD80AF6
S1130380E80AF80ACA01B901A30192010E940C0506
S1130390211531054105510581F71C141D041E0466
S11303A01F04E4F4E401CC0DDD1D54010F2EFAE02A
S11303B04F2E512C612C712CF02D612F702F832D19
S11303C0922DA30192010E940C05122F032F342EAB
S11303D0252E605D6A93AC16BD0679F7F401EC0D29
S11303E0FD1D1082DF91CF911F910F91FF90EF902F
S11303F0DF90CF90BF90AF909F908F907F906F9041
S11304005F904F903F902F9008958F929F92AF925C
S1130410BF92CF92DF92EF92FF92CF93DF93CDB74B
S1130420DEB761970FB6F894DEBF0FBECDBF6B0188
S11304307C0120E030E0A9010E94B20388230CF083
S113044040C0F7FAF094F7F8F094C701B6010E949F
S1130450B7034B015C010E94EF039B01AC01C70190
S1130460B6010E94450320E030E04AE754E40E94CC
S11304709F046B017C010E94B703AB01BC01CE0158
S11304800D960E949801B501A401CE0101960E9427
S113049098018DE20E943B01CE0101960E947D01EC
S11304A020E030E0A901C701B6010E94B20388230D
S11304B069F18EE20E943B01CE010D960E947D01FE
S11304C025C0C701B6010E94B7034B015C010E941D
S11304D0EF039B01AC01C701B6010E94450320E074
S11304E030E04AE754E40E949F046B017C010E94BF
S11304F0B703AB01BC01CE010D960E949801B50172
S1130500A401CE0101960E949801C6CF61960FB650
S1130510F894DEBF0FBECDBFDF91CF91FF90EF9077
S1130520DF90CF90BF90AF909F908F9008950E94DE
S113053015010E94330380E00E941C03C49800E06C
S113054010E00E944103813361F487E70E943D0378
S113055081E30E942E038535A1F784E40E943D03C4
S1130560F0CF8233D9F587E70E943D03C2E082E3EE
S11305700E942E038535D9F42FEF82E597E02150B0
S113058080409040E1F700C0000082E30E942E0307
S1130590082F10E02FEF80E792E021508040904038
S11305A0E1F700C0000082E30E942E03182BC15023
S11305B0F1F60E94150180E690E00E947D01B801E9
S11305C0769567957695679580E090E00E94ED03B7
S11305D00E94050284E40E943D03B3CF833369F48F
S11305E087E70E943D0383E30E942E03853509F0CB
S11305F0A8CF84E40E943D03A4CF8B3269F487E73B
S11306000E943D038BE20E942E03853509F099CFA9
S113061084E40E943D0395CF8D3209F092CF87E7A1
S11306200E943D038DE20E942E03853509F089CF97
S113063084E40E943D0385CF882319F0813051F072
S1130640089587B3806B87BBBE98C49A8DB18065CB
S11306508DB90895BC98BE9A6E9A08958FB9779B08
S1130660FECF8FB108958AB188618AB980B5866852
S113067080BD87E689B910BC08955D9BFECF8CB917
S113068008955F9BFECF8CB108955058BB27AA27CD
S11306900E945D030C9465040E94570438F00E9484
S11306A05E0420F039F49F3F19F426F40C945404AA
S11306B00EF4E095E7FB0C944E04E92F0E947604B7
S11306C058F3BA17620773078407950720F079F483
S11306D0A6F50C9498040EF4E0950B2EBA2FA02DD9
S11306E00B01B90190010C01CA01A0011124FF27DB
S11306F0591B99F0593F50F4503E68F11A16F040D6
S1130700A22F232F342F4427585FF3CF46953795D4
S11307102795A795F0405395C9F77EF41F16BA0B99
S1130720620B730B840BBAF09150A1F0FF0FBB1F47
S1130730661F771F881FC2F70EC0BA0F621F731F90
S1130740841F48F4879577956795B795F7959E3FED
S113075008F0B0CF9395880F08F09927EE0F97957E
S1130760879508950E942A0408F481E008950E9460
S1130770BE036894B1110C94990408950E947E04F8
S113078088F09F5798F0B92F9927B751B0F0E1F04E
S1130790660F771F881F991F1AF0BA95C9F714C0FE
S11307A0B13091F00E949804B1E008950C9498043B
S11307B0672F782F8827B85F39F0B93FCCF3869537
S11307C077956795B395D9F73EF490958095709594
S11307D061957F4F8F4F9F4F0895E89409C097FB11
S11307E03EF490958095709561957F4F8F4F9F4F04
S11307F09923A9F0F92F96E9BB279395F695879548
S113080077956795B795F111F8CFFAF4BB0F11F40A
S113081060FF1BC06F5F7F4F8F4F9F4F16C08823B1
S113082011F096E911C0772321F09EE8872F762FE7
S113083005C0662371F096E8862F70E060E02AF028
S11308409A95660F771F881FDAF7880F9695879514
S113085097F90895990F0008550FAA0BE0E8FEEFE9
S113086016161706E807F907C0F012161306E40770
S1130870F50798F0621B730B840B950B39F40A2669
S113088061F0232B242B252B21F408950A2609F447
S1130890A140A6958FEF811D811D089597F99F674B
S11308A080E870E060E008959FEF80EC08950024F4
S11308B00A941616170618060906089500240A94C1
S11308C012161306140605060895092E0394000C47
S11308D011F4882352F0BB0F40F4BF2B11F460FFD6
S11308E004C06F5F7F4F8F4F9F4F089557FD9058FF
S11308F0440F551F59F05F3F71F04795880F97FBE0
S1130900991F61F09F3F79F0879508951216130699
S11309101406551FF2CF4695F1DF08C016161706C8
S11309201806991FF1CF86957105610508940895FD
S1130930E894BB2766277727CB0197F908950E948F
S1130940B2040C9465040E94570438F00E945E04BB
S113095020F0952311F00C944E040C9454041124AB
S11309600C9499040E94760470F3959FC1F3950F3B
S113097050E0551F629FF001729FBB27F00DB11D1F
S1130980639FAA27F00DB11DAA1F649F6627B00DAF
S1130990A11D661F829F2227B00DA11D621F739F98
S11309A0B00DA11D621F839FA00D611D221F749FA6
S11309B03327A00D611D231F849F600D211D822FED
S11309C0762F6A2F11249F5750409AF0F1F0882314
S11309D04AF0EE0FFF1FBB1F661F771F881F915041
S11309E05040A9F79E3F510580F00C944E040C949E
S11309F099045F3FE4F3983ED4F386957795679521
S1130A00B795F795E7959F5FC1F7FE2B880F911D6A
S1130A109695879597F90895052E97FB1EF40094F3
S1130A200E94230557FD07D00E942B0507FC03D025
S1130A304EF40C94230550954095309521953F4FE5
S1130A404F4F5F4F089590958095709561957F4FB6
S1130A508F4F9F4F0895A1E21A2EAA1BBB1BFD01C5
S1130A600DC0AA1FBB1FEE1FFF1FA217B307E40789
S1130A70F50720F0A21BB30BE40BF50B661F771FE1
S1130A80881F991F1A9469F76095709580959095C1
S1110A909B01AC01BD01CF010895F894FFCF86
S1110A9E74656D70657261747572653A20003E
S9030000FC
