:100000000C942A000C943F000C943F000C943F0089
:100010000C943F000C943F000C943F000C943F0064
:100020000C943F000C943F000C943F000C943F0054
:100030000C943F000C943F000C943F000C943F0044
:100040000C943F000C943F000C943F000C943F0034
:100050000C943F0011241FBECFE5D8E0DEBFCDBF1A
:1000600010E0A0E6B0E0E2E7FDE002C005900D92EE
:10007000AA3EB107D9F70E94AE030C94B7060C94C0
:10008000000087B1806C87B986B1876086B9379ADE
:10009000089597B1907E8F71892B87B9369A3499DC
:1000A000FECF349A84B125B190E0922B0895982F19
:1000B0009770869586958695813021F130F0823053
:1000C000F1F1833009F458C00895613069F44BB3FD
:1000D00021E030E0B90102C0660F771F9A95E2F780
:1000E000CB01842B8BBB08954BB321E030E0B901E9
:1000F00002C0660F771F9A95E2F7CB0180958423A3
:100100008BBB0895613069F448B321E030E0B90158
:1001100002C0660F771F9A95E2F7CB01842B88BB4C
:10012000089548B321E030E0B90102C0660F771F9F
:100130009A95E2F7CB018095842388BB08956130BE
:1001400069F445B321E030E0B90102C0660F771FC2
:100150009A95E2F7CB01842B85BB089545B321E046
:1001600030E0B90102C0660F771F9A95E2F7CB0124
:100170008095842385BB0895613069F442B321E002
:1001800030E0B90102C0660F771F9A95E2F7CB0104
:10019000842B82BB089542B321E030E0B90102C054
:1001A000660F771F9A95E2F7CB018095842382BB77
:1001B0000895813041F028F0823039F0833039F0F1
:1001C00008956BBB089568BB089565BB089562BB35
:1001D0000895E0E6F0E080E041E050E0282F27704D
:1001E000982F969596959695913009F130F092302A
:1001F000C1F1933009F44FC067C09081913059F438
:100200009AB3BA0102C0660F771F2A95E2F79B01E5
:10021000292B2ABB59C03AB3BA0102C0660F771F17
:100220002A95E2F7962F909593239ABB4DC0908123
:10023000913059F497B3BA0102C0660F771F2A951F
:10024000E2F79B01292B27BB3FC037B3BA0102C09D
:10025000660F771F2A95E2F7962F9095932397BB09
:1002600033C09081913059F494B3BA0102C0660F43
:10027000771F2A95E2F79B01292B24BB25C034B3B5
:10028000BA0102C0660F771F2A95E2F7962F909564
:10029000932394BB19C09081913059F491B3BA0162
:1002A00002C0660F771F2A95E2F79B01292B21BB1D
:1002B0000BC031B3BA0102C0660F771F2A95E2F76F
:1002C000962F9095932391BB8F5F3296803209F0E1
:1002D00085CFE1E6F0E080E041E050E0282F277094
:1002E000982F969596959695913009F130F0923029
:1002F000C1F1933009F44FC067C09081913059F437
:100300009BB3BA0102C0660F771F2A95E2F79B01E3
:10031000292B2BBB59C03BB3BA0102C0660F771F14
:100320002A95E2F7962F909593239BBB4DC0908121
:10033000913059F498B3BA0102C0660F771F2A951D
:10034000E2F79B01292B28BB3FC038B3BA0102C09A
:10035000660F771F2A95E2F7962F9095932398BB07
:1003600033C09081913059F495B3BA0102C0660F41
:10037000771F2A95E2F79B01292B25BB25C035B3B2
:10038000BA0102C0660F771F2A95E2F7962F909563
:10039000932395BB19C09081913059F492B3BA015F
:1003A00002C0660F771F2A95E2F79B01292B22BB1B
:1003B0000BC032B3BA0102C0660F771F2A95E2F76D
:1003C000962F9095932392BB8F5F3296803209F0DF
:1003D00085CF0895CF93C82F60E088E00E94570032
:1003E0006BB36F708C2F807F682B80E00E94D900E8
:1003F00061E08AE00E9457008FE39FE10197F1F7E7
:1004000000C0000060E08AE00E9457008FE19EE497
:100410000197F1F700C000006BB36F7020E1C29F3D
:10042000C0011124682B80E00E94D90061E08AE0BD
:100430000E9457008FE39FE10197F1F700C0000091
:1004400060E08AE00E9457008FE39FE10197F1F797
:1004500000C00000CF9108958AB3806F8ABBB89A1C
:10046000B99ABA9A2FEF89EF90E0215080409040DE
:10047000E1F700C0000060E089E00E94570083E3DC
:100480000E94EA0182E30E94EA0188E20E94EA01F6
:1004900086E00E94EA018FE00E94EA0181E00E946A
:1004A000EA010895CF93C82F61E088E00E945700C9
:1004B0006BB36F708C2F807F682B80E00E94D90017
:1004C00061E08AE00E9457008FE39FE10197F1F716
:1004D00000C0000060E08AE00E9457008FE19EE4C7
:1004E0000197F1F700C000006BB36F7020E1C29F6D
:1004F000C0011124682B80E00E94D90061E08AE0ED
:100500000E9457008FE39FE10197F1F700C00000C0
:1005100060E08AE00E9457008FE39FE10197F1F7C6
:1005200000C00000CF9108950F931F93CF938C01CB
:10053000C0E00BC00E945202CF5FC03121F480ECBA
:100540000E94EA0102C0C03231F0F801EC0FF11D47
:1005500080818111EFCFCF911F910F9108952F923C
:100560003F924F925F926F927F928F929F92AF9243
:10057000BF92CF92DF92EF92FF920F931F93CF9390
:10058000DF934C01142F052F362E272E242F352FC5
:10059000462F572FC12CD12C76010F2EFAE04F2E6B
:1005A000512C612C712CF02D8FEFC81AD80AE80A53
:1005B000F80ACA01B901A30192010E94620621153D
:1005C00031054105510581F71C141D041E041F044B
:1005D000E4F4E401CC0DDD1D54010F2EFAE04F2EA2
:1005E000512C612C712CF02D612F702F832D922DA9
:1005F000A30192010E946206122F032F342E252E92
:10060000605D6A93AC16BD0679F7F401EC0DFD1D33
:100610001082DF91CF911F910F91FF90EF90DF90AB
:10062000CF90BF90AF909F908F907F906F905F9092
:100630004F903F902F9008958F929F92AF92BF92CC
:10064000CF92DF92EF92FF92CF93DF93CDB7DEB7D9
:1006500061970FB6F894DEBF0FBECDBF6B017C0172
:1006600020E030E0A9010E94F40488230CF040C08F
:10067000F7FAF094F7F8F094C701B6010E94F90474
:100680004B015C010E9431059B01AC01C701B60121
:100690000E94870420E030E04AE754E40E94E1052C
:1006A0006B017C010E94F904AB01BC01CE010D96E7
:1006B0000E94AF02B501A401CE0101960E94AF02D3
:1006C0008DE20E945202CE0101960E94940220E027
:1006D00030E0A901C701B6010E94F404882369F142
:1006E0008EE20E945202CE010D960E94940225C015
:1006F000C701B6010E94F9044B015C010E9431055B
:100700009B01AC01C701B6010E94870420E030E0E4
:100710004AE754E40E94E1056B017C010E94F90460
:10072000AB01BC01CE010D960E94AF02B501A40140
:10073000CE0101960E94AF02C6CF61960FB6F89423
:10074000DEBF0FBECDBFDF91CF91FF90EF90DF9066
:10075000CF90BF90AF909F908F9008950E94E90036
:10076000A79A83E00E946D0483B78F7C83BF83B711
:10077000887F836083BF8FE78CBF81E00E9456042F
:100780000E9441000E942C02C2E304E610E068943B
:10079000FF24F5F885E50E946804813321F485B3D0
:1007A000805885BBF7CF823351F481E00E94490025
:1007B000D92F0E9468048D2F0E946804EBCF8333E9
:1007C000E1F483B78F2583BF03B605FE0FC00E94F7
:1007D0002C0280EA90E00E9494026C2F70E080E08E
:1007E00090E00E942F050E941C03D4CF0E942C028F
:1007F0008EEA90E00E949402CDCF8B3251F503B681
:1008000005FE20C0C436B8F4C75E9C2F80E0B80156
:100810000E944E0661506CBF0E942C0280EA90E05C
:100820000E9494026C2F70E080E090E00E942F05FF
:100830000E941C03AFCF0E942C028CEB90E00E9420
:100840009402A8CF0E942C028CEC90E00E949402AB
:10085000A1CF8D3209F09ECF03B605FE20C0CC2378
:10086000B9F0C9519C2F80E0B8010E944E0661503A
:100870006CBF0E942C0280EA90E00E9494026C2FD0
:1008800070E080E090E00E942F050E941C0382CF60
:100890000E942C028BED90E00E9494027BCF0E947C
:1008A0002C028CEC90E00E94940274CF882319F003
:1008B000813051F0089587B3806B87BBBE988DB1AE
:1008C00080658DB9C49A0895BC98BE9A6E9A0895B1
:1008D0008FB9779BFECF8FB10895813051F028F00A
:1008E000823061F0833079F0089583B7877B83BFCE
:1008F000089583B7877B806483BF089583B7877B20
:10090000886083BF089583B7886483BF0895505873
:10091000BB27AA270E949F040C94A7050E94990553
:1009200038F00E94A00520F039F49F3F19F426F416
:100930000C9496050EF4E095E7FB0C949005E92FD6
:100940000E94B80558F3BA17620773078407950722
:1009500020F079F4A6F50C94DA050EF4E0950B2E50
:10096000BA2FA02D0B01B90190010C01CA01A00101
:100970001124FF27591B99F0593F50F4503E68F15C
:100980001A16F040A22F232F342F4427585FF3CF9D
:10099000469537952795A795F0405395C9F77EF46E
:1009A0001F16BA0B620B730B840BBAF09150A1F0B7
:1009B000FF0FBB1F661F771F881FC2F70EC0BA0F3D
:1009C000621F731F841F48F4879577956795B795C5
:1009D000F7959E3F08F0B0CF9395880F08F09927C0
:1009E000EE0F9795879508950E946C0508F481E0B5
:1009F00008950E9400056894B1110C94DB050895D8
:100A00000E94C00588F09F5798F0B92F9927B751D9
:100A1000B0F0E1F0660F771F881F991F1AF0BA95A2
:100A2000C9F714C0B13091F00E94DA05B1E0089521
:100A30000C94DA05672F782F8827B85F39F0B93F13
:100A4000CCF3869577956795B395D9F73EF4909555
:100A50008095709561957F4F8F4F9F4F0895E894D3
:100A600009C097FB3EF490958095709561957F4FF6
:100A70008F4F9F4F9923A9F0F92F96E9BB279395A4
:100A8000F695879577956795B795F111F8CFFAF4B4
:100A9000BB0F11F460FF1BC06F5F7F4F8F4F9F4FE5
:100AA00016C0882311F096E911C0772321F09EE843
:100AB000872F762F05C0662371F096E8862F70E0A9
:100AC00060E02AF09A95660F771F881FDAF7880F83
:100AD0009695879597F90895990F0008550FAA0BD9
:100AE000E0E8FEEF16161706E807F907C0F0121641
:100AF0001306E407F50798F0621B730B840B950B44
:100B000039F40A2661F0232B242B252B21F4089598
:100B10000A2609F4A140A6958FEF811D811D089535
:100B200097F99F6780E870E060E008959FEF80ECA0
:100B3000089500240A941616170618060906089543
:100B400000240A9412161306140605060895092EA9
:100B50000394000C11F4882352F0BB0F40F4BF2B18
:100B600011F460FF04C06F5F7F4F8F4F9F4F089558
:100B700057FD9058440F551F59F05F3F71F047954E
:100B8000880F97FB991F61F09F3F79F08795089533
:100B9000121613061406551FF2CF4695F1DF08C052
:100BA000161617061806991FF1CF8695710561056F
:100BB00008940895E894BB2766277727CB0197F917
:100BC00008950E94F4050C94A7050E94990538F039
:100BD0000E94A00520F0952311F00C9490050C9430
:100BE000960511240C94DB050E94B80570F3959FBF
:100BF000C1F3950F50E0551F629FF001729FBB2714
:100C0000F00DB11D639FAA27F00DB11DAA1F649FAF
:100C10006627B00DA11D661F829F2227B00DA11D62
:100C2000621F739FB00DA11D621F839FA00D611DE8
:100C3000221F749F3327A00D611D231F849F600D09
:100C4000211D822F762F6A2F11249F5750409AF032
:100C5000F1F088234AF0EE0FFF1FBB1F661F771FBE
:100C6000881F91505040A9F79E3F510580F00C9489
:100C700090050C94DB055F3FE4F3983ED4F3869532
:100C800077956795B795F795E7959F5FC1F7FE2B29
:100C9000880F911D9695879597F9089597FB072ED4
:100CA00016F4009407D077FD09D00E94810607FC56
:100CB00005D03EF4909581959F4F0895709561956C
:100CC0007F4F0895052E97FB1EF400940E9479062D
:100CD00057FD07D00E94950607FC03D04EF40C94F4
:100CE000790650954095309521953F4F4F4F5F4F76
:100CF000089590958095709561957F4F8F4F9F4F88
:100D00000895AA1BBB1B51E107C0AA1FBB1FA61752
:100D1000B70710F0A61BB70B881F991F5A95A9F7A4
:100D200080959095BC01CD010895A1E21A2EAA1BD1
:100D3000BB1BFD010DC0AA1FBB1FEE1FFF1FA2178B
:100D4000B307E407F50720F0A21BB30BE40BF50B88
:100D5000661F771F881F991F1A9469F76095709511
:100D6000809590959B01AC01BD01CF010895F89449
:020D7000FFCFB3
:100D7200010000000100010001000100010001006A
:100D82000100010001000100010001000100010059
:100D92000100010001000100010001000100010049
:100DA2000100010001000100010001000100010039
:100DB2006D6F746F7220706F7765723A20006D6F7D
:100DC200746F72206973206F666621006D6F746F95
:100DD2007220697320313030252021006D6F746FCD
:100DE20072206973206F66662021006D6F746F72C6
:0A0DF2002069732030252021000045
:00000001FF
